{
  "_format": "hh-sol-artifact-1",
  "contractName": "TokenizedBallot",
  "sourceName": "contracts/TokenizedBallot.sol",
  "abi": [
    {
      "inputs": [
        {
          "internalType": "bytes32[]",
          "name": "proposalNames",
          "type": "bytes32[]"
        },
        {
          "internalType": "contract IMyVotingToken",
          "name": "_votesContract",
          "type": "address"
        }
      ],
      "stateMutability": "nonpayable",
      "type": "constructor"
    },
    {
      "inputs": [],
      "name": "TokenizedBallot__NotEnoughVotingPower",
      "type": "error"
    },
    {
      "inputs": [
        {
          "internalType": "uint256",
          "name": "",
          "type": "uint256"
        }
      ],
      "name": "proposals",
      "outputs": [
        {
          "internalType": "bytes32",
          "name": "name",
          "type": "bytes32"
        },
        {
          "internalType": "uint256",
          "name": "voteCount",
          "type": "uint256"
        }
      ],
      "stateMutability": "view",
      "type": "function"
    },
    {
      "inputs": [],
      "name": "targetBlockNumber",
      "outputs": [
        {
          "internalType": "uint256",
          "name": "",
          "type": "uint256"
        }
      ],
      "stateMutability": "view",
      "type": "function"
    },
    {
      "inputs": [
        {
          "internalType": "uint256",
          "name": "proposal",
          "type": "uint256"
        },
        {
          "internalType": "uint256",
          "name": "amount",
          "type": "uint256"
        }
      ],
      "name": "vote",
      "outputs": [],
      "stateMutability": "nonpayable",
      "type": "function"
    },
    {
      "inputs": [],
      "name": "votesContract",
      "outputs": [
        {
          "internalType": "contract IMyVotingToken",
          "name": "",
          "type": "address"
        }
      ],
      "stateMutability": "view",
      "type": "function"
    },
    {
      "inputs": [
        {
          "internalType": "address",
          "name": "account",
          "type": "address"
        }
      ],
      "name": "votingPower",
      "outputs": [
        {
          "internalType": "uint256",
          "name": "",
          "type": "uint256"
        }
      ],
      "stateMutability": "view",
      "type": "function"
    },
    {
      "inputs": [
        {
          "internalType": "address",
          "name": "",
          "type": "address"
        }
      ],
      "name": "votingPowerSpent",
      "outputs": [
        {
          "internalType": "uint256",
          "name": "",
          "type": "uint256"
        }
      ],
      "stateMutability": "view",
      "type": "function"
    },
    {
      "inputs": [],
      "name": "winnerName",
      "outputs": [
        {
          "internalType": "bytes32",
          "name": "winnerName_",
          "type": "bytes32"
        }
      ],
      "stateMutability": "view",
      "type": "function"
    },
    {
      "inputs": [],
      "name": "winningProposal",
      "outputs": [
        {
          "internalType": "uint256",
          "name": "winningProposal_",
          "type": "uint256"
        }
      ],
      "stateMutability": "view",
      "type": "function"
    }
  ],
  "bytecode": "0x60806040523480156200001157600080fd5b5060405162000d2538038062000d2583398181016040528101906200003791906200035b565b806000806101000a81548173ffffffffffffffffffffffffffffffffffffffff021916908373ffffffffffffffffffffffffffffffffffffffff1602179055504360028190555060005b8251811015620001155760016040518060400160405280858481518110620000ae57620000ad620003c1565b5b60200260200101518152602001600081525090806001815401808255809150506001900390600052602060002090600202016000909190919091506000820151816000015560208201518160010155505080806200010c9062000429565b91505062000081565b50505062000476565b6000604051905090565b600080fd5b600080fd5b600080fd5b6000601f19601f8301169050919050565b7f4e487b7100000000000000000000000000000000000000000000000000000000600052604160045260246000fd5b620001828262000137565b810181811067ffffffffffffffff82111715620001a457620001a362000148565b5b80604052505050565b6000620001b96200011e565b9050620001c7828262000177565b919050565b600067ffffffffffffffff821115620001ea57620001e962000148565b5b602082029050602081019050919050565b600080fd5b6000819050919050565b620002158162000200565b81146200022157600080fd5b50565b60008151905062000235816200020a565b92915050565b6000620002526200024c84620001cc565b620001ad565b90508083825260208201905060208402830185811115620002785762000277620001fb565b5b835b81811015620002a5578062000290888262000224565b8452602084019350506020810190506200027a565b5050509392505050565b600082601f830112620002c757620002c662000132565b5b8151620002d98482602086016200023b565b91505092915050565b600073ffffffffffffffffffffffffffffffffffffffff82169050919050565b60006200030f82620002e2565b9050919050565b6000620003238262000302565b9050919050565b620003358162000316565b81146200034157600080fd5b50565b60008151905062000355816200032a565b92915050565b6000806040838503121562000375576200037462000128565b5b600083015167ffffffffffffffff8111156200039657620003956200012d565b5b620003a485828601620002af565b9250506020620003b78582860162000344565b9150509250929050565b7f4e487b7100000000000000000000000000000000000000000000000000000000600052603260045260246000fd5b7f4e487b7100000000000000000000000000000000000000000000000000000000600052601160045260246000fd5b6000819050919050565b600062000436826200041f565b91507fffffffffffffffffffffffffffffffffffffffffffffffffffffffffffffffff82036200046b576200046a620003f0565b5b600182019050919050565b61089f80620004866000396000f3fe608060405234801561001057600080fd5b50600436106100885760003560e01c8063a72003511161005b578063a720035114610118578063b384abef14610148578063c07473f614610164578063e2ba53f01461019457610088565b8063013cf08b1461008d578063202ebfef146100be5780632a8cd29e146100dc578063609ff1bd146100fa575b600080fd5b6100a760048036038101906100a291906104e8565b6101b2565b6040516100b592919061053d565b60405180910390f35b6100c66101e6565b6040516100d391906105e5565b60405180910390f35b6100e461020a565b6040516100f19190610600565b60405180910390f35b610102610210565b60405161010f9190610600565b60405180910390f35b610132600480360381019061012d9190610659565b610298565b60405161013f9190610600565b60405180910390f35b610162600480360381019061015d9190610686565b6102b0565b005b61017e60048036038101906101799190610659565b610388565b60405161018b9190610600565b60405180910390f35b61019c610479565b6040516101a991906106c6565b60405180910390f35b600181815481106101c257600080fd5b90600052602060002090600202016000915090508060000154908060010154905082565b60008054906101000a900473ffffffffffffffffffffffffffffffffffffffff1681565b60025481565b6000806000905060005b60018054905081101561029357816001828154811061023c5761023b6106e1565b5b90600052602060002090600202016001015411156102805760018181548110610268576102676106e1565b5b90600052602060002090600202016001015491508092505b808061028b9061073f565b91505061021a565b505090565b60036020528060005260406000206000915090505481565b806102ba33610388565b10156102f2576040517fadd5e6c000000000000000000000000000000000000000000000000000000000815260040160405180910390fd5b80600360003373ffffffffffffffffffffffffffffffffffffffff1673ffffffffffffffffffffffffffffffffffffffff16815260200190815260200160002060008282546103419190610787565b92505081905550806001838154811061035d5761035c6106e1565b5b9060005260206000209060020201600101600082825461037d9190610787565b925050819055505050565b6000600360008373ffffffffffffffffffffffffffffffffffffffff1673ffffffffffffffffffffffffffffffffffffffff1681526020019081526020016000205460008054906101000a900473ffffffffffffffffffffffffffffffffffffffff1673ffffffffffffffffffffffffffffffffffffffff16633a46b1a8846002546040518363ffffffff1660e01b81526004016104279291906107ca565b602060405180830381865afa158015610444573d6000803e3d6000fd5b505050506040513d601f19601f820116820180604052508101906104689190610808565b6104729190610835565b9050919050565b60006001610485610210565b81548110610496576104956106e1565b5b906000526020600020906002020160000154905090565b600080fd5b6000819050919050565b6104c5816104b2565b81146104d057600080fd5b50565b6000813590506104e2816104bc565b92915050565b6000602082840312156104fe576104fd6104ad565b5b600061050c848285016104d3565b91505092915050565b6000819050919050565b61052881610515565b82525050565b610537816104b2565b82525050565b6000604082019050610552600083018561051f565b61055f602083018461052e565b9392505050565b600073ffffffffffffffffffffffffffffffffffffffff82169050919050565b6000819050919050565b60006105ab6105a66105a184610566565b610586565b610566565b9050919050565b60006105bd82610590565b9050919050565b60006105cf826105b2565b9050919050565b6105df816105c4565b82525050565b60006020820190506105fa60008301846105d6565b92915050565b6000602082019050610615600083018461052e565b92915050565b600061062682610566565b9050919050565b6106368161061b565b811461064157600080fd5b50565b6000813590506106538161062d565b92915050565b60006020828403121561066f5761066e6104ad565b5b600061067d84828501610644565b91505092915050565b6000806040838503121561069d5761069c6104ad565b5b60006106ab858286016104d3565b92505060206106bc858286016104d3565b9150509250929050565b60006020820190506106db600083018461051f565b92915050565b7f4e487b7100000000000000000000000000000000000000000000000000000000600052603260045260246000fd5b7f4e487b7100000000000000000000000000000000000000000000000000000000600052601160045260246000fd5b600061074a826104b2565b91507fffffffffffffffffffffffffffffffffffffffffffffffffffffffffffffffff820361077c5761077b610710565b5b600182019050919050565b6000610792826104b2565b915061079d836104b2565b92508282019050808211156107b5576107b4610710565b5b92915050565b6107c48161061b565b82525050565b60006040820190506107df60008301856107bb565b6107ec602083018461052e565b9392505050565b600081519050610802816104bc565b92915050565b60006020828403121561081e5761081d6104ad565b5b600061082c848285016107f3565b91505092915050565b6000610840826104b2565b915061084b836104b2565b925082820390508181111561086357610862610710565b5b9291505056fea2646970667358221220a8f7f5518493e5ffb0ee2321bb1a475bbf420f862602d600fcbb80879d0d1adb64736f6c63430008120033",
  "linkReferences": {},
  "deployedLinkReferences": {}
}